{
  "_format": "hh-sol-artifact-1",
  "contractName": "PointingContract",
  "sourceName": "contracts/PointingContract.sol",
  "abi": [
    {
      "inputs": [
        {
          "internalType": "uint256",
          "name": "_point",
          "type": "uint256"
        }
      ],
      "name": "addPoint",
      "outputs": [],
      "stateMutability": "nonpayable",
      "type": "function"
    },
    {
      "inputs": [
        {
          "internalType": "address",
          "name": "_user",
          "type": "address"
        }
      ],
      "name": "getPoint",
      "outputs": [
        {
          "internalType": "uint256",
          "name": "",
          "type": "uint256"
        }
      ],
      "stateMutability": "view",
      "type": "function"
    },
    {
      "inputs": [],
      "name": "point",
      "outputs": [
        {
          "internalType": "uint256",
          "name": "",
          "type": "uint256"
        }
      ],
      "stateMutability": "view",
      "type": "function"
    }
  ],
  "bytecode": "0x6080604052348015600f57600080fd5b506103ce8061001f6000396000f3fe608060405234801561001057600080fd5b50600436106100415760003560e01c80632ba9fcd5146100465780634ff531b614610064578063fc4d312d14610094575b600080fd5b61004e6100b0565b60405161005b91906101b4565b60405180910390f35b61007e60048036038101906100799190610232565b6100b6565b60405161008b91906101b4565b60405180910390f35b6100ae60048036038101906100a9919061028b565b6100ff565b005b60005481565b6000600160008373ffffffffffffffffffffffffffffffffffffffff1673ffffffffffffffffffffffffffffffffffffffff168152602001908152602001600020549050919050565b60008111610142576040517f08c379a000000000000000000000000000000000000000000000000000000000815260040161013990610315565b60405180910390fd5b80600160003373ffffffffffffffffffffffffffffffffffffffff1673ffffffffffffffffffffffffffffffffffffffff16815260200190815260200160002060008282546101919190610364565b9250508190555050565b6000819050919050565b6101ae8161019b565b82525050565b60006020820190506101c960008301846101a5565b92915050565b600080fd5b600073ffffffffffffffffffffffffffffffffffffffff82169050919050565b60006101ff826101d4565b9050919050565b61020f816101f4565b811461021a57600080fd5b50565b60008135905061022c81610206565b92915050565b600060208284031215610248576102476101cf565b5b60006102568482850161021d565b91505092915050565b6102688161019b565b811461027357600080fd5b50565b6000813590506102858161025f565b92915050565b6000602082840312156102a1576102a06101cf565b5b60006102af84828501610276565b91505092915050565b600082825260208201905092915050565b7f506f696e74206d7573742062652067726561746572207468616e203000000000600082015250565b60006102ff601c836102b8565b915061030a826102c9565b602082019050919050565b6000602082019050818103600083015261032e816102f2565b9050919050565b7f4e487b7100000000000000000000000000000000000000000000000000000000600052601160045260246000fd5b600061036f8261019b565b915061037a8361019b565b925082820190508082111561039257610391610335565b5b9291505056fea2646970667358221220d963125e7dd1dd1f43d5d45dd1a04d0e77e31f61f037438253d701bd857f0e7f64736f6c634300081c0033",
  "linkReferences": {},
  "deployedLinkReferences": {}
}