{
  "_format": "hh-sol-artifact-1",
  "contractName": "PrizeClaimContract",
  "sourceName": "contracts/PrizeClaimContract.sol",
  "abi": [
    {
      "inputs": [
        {
          "internalType": "address",
          "name": "_pointingContractAddress",
          "type": "address"
        },
        {
          "internalType": "uint256",
          "name": "_prizeAmountInWei",
          "type": "uint256"
        }
      ],
      "stateMutability": "nonpayable",
      "type": "constructor"
    },
    {
      "inputs": [],
      "name": "claimPrize",
      "outputs": [],
      "stateMutability": "nonpayable",
      "type": "function"
    },
    {
      "inputs": [],
      "name": "pointingContract",
      "outputs": [
        {
          "internalType": "contract IPointingContract",
          "name": "",
          "type": "address"
        }
      ],
      "stateMutability": "view",
      "type": "function"
    },
    {
      "inputs": [],
      "name": "prizeAmount",
      "outputs": [
        {
          "internalType": "uint256",
          "name": "",
          "type": "uint256"
        }
      ],
      "stateMutability": "view",
      "type": "function"
    },
    {
      "stateMutability": "payable",
      "type": "receive"
    }
  ],
  "bytecode": "0x608060405234801561001057600080fd5b5060405161066438038061066483398181016040528101906100329190610119565b816000806101000a81548173ffffffffffffffffffffffffffffffffffffffff021916908373ffffffffffffffffffffffffffffffffffffffff160217905550806001819055505050610159565b600080fd5b600073ffffffffffffffffffffffffffffffffffffffff82169050919050565b60006100b082610085565b9050919050565b6100c0816100a5565b81146100cb57600080fd5b50565b6000815190506100dd816100b7565b92915050565b6000819050919050565b6100f6816100e3565b811461010157600080fd5b50565b600081519050610113816100ed565b92915050565b600080604083850312156101305761012f610080565b5b600061013e858286016100ce565b925050602061014f85828601610104565b9150509250929050565b6104fc806101686000396000f3fe6080604052600436106100385760003560e01c80635df12d441461004457806370740ac91461006f578063785fa627146100865761003f565b3661003f57005b600080fd5b34801561005057600080fd5b506100596100b1565b60405161006691906102ce565b60405180910390f35b34801561007b57600080fd5b506100846100d5565b005b34801561009257600080fd5b5061009b610249565b6040516100a89190610302565b60405180910390f35b60008054906101000a900473ffffffffffffffffffffffffffffffffffffffff1681565b60008060009054906101000a900473ffffffffffffffffffffffffffffffffffffffff1673ffffffffffffffffffffffffffffffffffffffff16634ff531b6336040518263ffffffff1660e01b8152600401610131919061033e565b602060405180830381865afa15801561014e573d6000803e3d6000fd5b505050506040513d601f19601f82011682018060405250810190610172919061038a565b905060328110156101b8576040517f08c379a00000000000000000000000000000000000000000000000000000000081526004016101af9061043a565b60405180910390fd5b6001544710156101fd576040517f08c379a00000000000000000000000000000000000000000000000000000000081526004016101f4906104a6565b60405180910390fd5b3373ffffffffffffffffffffffffffffffffffffffff166108fc6001549081150290604051600060405180830381858888f19350505050158015610245573d6000803e3d6000fd5b5050565b60015481565b600073ffffffffffffffffffffffffffffffffffffffff82169050919050565b6000819050919050565b600061029461028f61028a8461024f565b61026f565b61024f565b9050919050565b60006102a682610279565b9050919050565b60006102b88261029b565b9050919050565b6102c8816102ad565b82525050565b60006020820190506102e360008301846102bf565b92915050565b6000819050919050565b6102fc816102e9565b82525050565b600060208201905061031760008301846102f3565b92915050565b60006103288261024f565b9050919050565b6103388161031d565b82525050565b6000602082019050610353600083018461032f565b92915050565b600080fd5b610367816102e9565b811461037257600080fd5b50565b6000815190506103848161035e565b92915050565b6000602082840312156103a05761039f610359565b5b60006103ae84828501610375565b91505092915050565b600082825260208201905092915050565b7f4e6f7420656e6f75676820706f696e747320746f20636c61696d207072697a6560008201527f2e00000000000000000000000000000000000000000000000000000000000000602082015250565b60006104246021836103b7565b915061042f826103c8565b604082019050919050565b6000602082019050818103600083015261045381610417565b9050919050565b7f496e73756666696369656e7420636f6e74726163742062616c616e6365000000600082015250565b6000610490601d836103b7565b915061049b8261045a565b602082019050919050565b600060208201905081810360008301526104bf81610483565b905091905056fea2646970667358221220353b422d988a8905c846af8cccc090943fe738f21fec61fa2b437f76727d5f5b64736f6c634300081c0033",
  "linkReferences": {},
  "deployedLinkReferences": {}
}