{
  "_format": "hh-sol-artifact-1",
  "contractName": "MyToken",
  "sourceName": "contracts/MyToken.sol",
  "abi": [
    {
      "inputs": [
        {
          "internalType": "uint256",
          "name": "initialSupply",
          "type": "uint256"
        }
      ],
      "stateMutability": "nonpayable",
      "type": "constructor"
    },
    {
      "anonymous": false,
      "inputs": [
        {
          "indexed": true,
          "internalType": "address",
          "name": "owner",
          "type": "address"
        },
        {
          "indexed": true,
          "internalType": "address",
          "name": "spender",
          "type": "address"
        },
        {
          "indexed": false,
          "internalType": "uint256",
          "name": "value",
          "type": "uint256"
        }
      ],
      "name": "Approval",
      "type": "event"
    },
    {
      "anonymous": false,
      "inputs": [
        {
          "indexed": true,
          "internalType": "address",
          "name": "from",
          "type": "address"
        },
        {
          "indexed": true,
          "internalType": "address",
          "name": "to",
          "type": "address"
        },
        {
          "indexed": false,
          "internalType": "uint256",
          "name": "value",
          "type": "uint256"
        }
      ],
      "name": "Transfer",
      "type": "event"
    },
    {
      "inputs": [
        {
          "internalType": "address",
          "name": "owner",
          "type": "address"
        },
        {
          "internalType": "address",
          "name": "spender",
          "type": "address"
        }
      ],
      "name": "_allowance",
      "outputs": [
        {
          "internalType": "uint256",
          "name": "",
          "type": "uint256"
        }
      ],
      "stateMutability": "view",
      "type": "function"
    },
    {
      "inputs": [
        {
          "internalType": "address",
          "name": "",
          "type": "address"
        }
      ],
      "name": "_balanceOf",
      "outputs": [
        {
          "internalType": "uint256",
          "name": "",
          "type": "uint256"
        }
      ],
      "stateMutability": "view",
      "type": "function"
    },
    {
      "inputs": [],
      "name": "_name",
      "outputs": [
        {
          "internalType": "string",
          "name": "",
          "type": "string"
        }
      ],
      "stateMutability": "view",
      "type": "function"
    },
    {
      "inputs": [],
      "name": "_symbol",
      "outputs": [
        {
          "internalType": "string",
          "name": "",
          "type": "string"
        }
      ],
      "stateMutability": "view",
      "type": "function"
    },
    {
      "inputs": [],
      "name": "_totalSupply",
      "outputs": [
        {
          "internalType": "uint256",
          "name": "",
          "type": "uint256"
        }
      ],
      "stateMutability": "view",
      "type": "function"
    },
    {
      "inputs": [
        {
          "internalType": "address",
          "name": "",
          "type": "address"
        },
        {
          "internalType": "address",
          "name": "",
          "type": "address"
        }
      ],
      "name": "allowance",
      "outputs": [
        {
          "internalType": "uint256",
          "name": "",
          "type": "uint256"
        }
      ],
      "stateMutability": "view",
      "type": "function"
    },
    {
      "inputs": [
        {
          "internalType": "address",
          "name": "_spender",
          "type": "address"
        },
        {
          "internalType": "uint256",
          "name": "_value",
          "type": "uint256"
        }
      ],
      "name": "approve",
      "outputs": [
        {
          "internalType": "bool",
          "name": "",
          "type": "bool"
        }
      ],
      "stateMutability": "nonpayable",
      "type": "function"
    },
    {
      "inputs": [
        {
          "internalType": "address",
          "name": "account",
          "type": "address"
        }
      ],
      "name": "balanceOf",
      "outputs": [
        {
          "internalType": "uint256",
          "name": "",
          "type": "uint256"
        }
      ],
      "stateMutability": "view",
      "type": "function"
    },
    {
      "inputs": [
        {
          "internalType": "uint256",
          "name": "amount",
          "type": "uint256"
        }
      ],
      "name": "burn",
      "outputs": [],
      "stateMutability": "nonpayable",
      "type": "function"
    },
    {
      "inputs": [],
      "name": "decimals",
      "outputs": [
        {
          "internalType": "uint8",
          "name": "",
          "type": "uint8"
        }
      ],
      "stateMutability": "view",
      "type": "function"
    },
    {
      "inputs": [
        {
          "internalType": "address",
          "name": "to",
          "type": "address"
        },
        {
          "internalType": "uint256",
          "name": "amount",
          "type": "uint256"
        }
      ],
      "name": "mint",
      "outputs": [],
      "stateMutability": "nonpayable",
      "type": "function"
    },
    {
      "inputs": [],
      "name": "name",
      "outputs": [
        {
          "internalType": "string",
          "name": "",
          "type": "string"
        }
      ],
      "stateMutability": "view",
      "type": "function"
    },
    {
      "inputs": [],
      "name": "symbol",
      "outputs": [
        {
          "internalType": "string",
          "name": "",
          "type": "string"
        }
      ],
      "stateMutability": "view",
      "type": "function"
    },
    {
      "inputs": [],
      "name": "totalSupply",
      "outputs": [
        {
          "internalType": "uint256",
          "name": "",
          "type": "uint256"
        }
      ],
      "stateMutability": "view",
      "type": "function"
    },
    {
      "inputs": [
        {
          "internalType": "address",
          "name": "_to",
          "type": "address"
        },
        {
          "internalType": "uint256",
          "name": "_value",
          "type": "uint256"
        }
      ],
      "name": "transfer",
      "outputs": [
        {
          "internalType": "bool",
          "name": "",
          "type": "bool"
        }
      ],
      "stateMutability": "nonpayable",
      "type": "function"
    },
    {
      "inputs": [
        {
          "internalType": "address",
          "name": "_from",
          "type": "address"
        },
        {
          "internalType": "address",
          "name": "_to",
          "type": "address"
        },
        {
          "internalType": "uint256",
          "name": "_value",
          "type": "uint256"
        }
      ],
      "name": "transferFrom",
      "outputs": [
        {
          "internalType": "bool",
          "name": "",
          "type": "bool"
        }
      ],
      "stateMutability": "nonpayable",
      "type": "function"
    }
  ],
  "bytecode": "0x60806040526040518060400160405280600981526020017f476f6c64546f6b656e00000000000000000000000000000000000000000000008152506000908161004891906103a4565b506040518060400160405280600381526020017f47544b00000000000000000000000000000000000000000000000000000000008152506001908161008d91906103a4565b506012600260006101000a81548160ff021916908360ff1602179055503480156100b657600080fd5b50604051611bb2380380611bb283398181016040528101906100d891906104a7565b600260009054906101000a900460ff1660ff16600a6100f79190610636565b816101029190610681565b600381905550600354600460003373ffffffffffffffffffffffffffffffffffffffff1673ffffffffffffffffffffffffffffffffffffffff16815260200190815260200160002081905550506106c3565b600081519050919050565b7f4e487b7100000000000000000000000000000000000000000000000000000000600052604160045260246000fd5b7f4e487b7100000000000000000000000000000000000000000000000000000000600052602260045260246000fd5b600060028204905060018216806101d557607f821691505b6020821081036101e8576101e761018e565b5b50919050565b60008190508160005260206000209050919050565b60006020601f8301049050919050565b600082821b905092915050565b6000600883026102507fffffffffffffffffffffffffffffffffffffffffffffffffffffffffffffffff82610213565b61025a8683610213565b95508019841693508086168417925050509392505050565b6000819050919050565b6000819050919050565b60006102a161029c61029784610272565b61027c565b610272565b9050919050565b6000819050919050565b6102bb83610286565b6102cf6102c7826102a8565b848454610220565b825550505050565b600090565b6102e46102d7565b6102ef8184846102b2565b505050565b5b81811015610313576103086000826102dc565b6001810190506102f5565b5050565b601f82111561035857610329816101ee565b61033284610203565b81016020851015610341578190505b61035561034d85610203565b8301826102f4565b50505b505050565b600082821c905092915050565b600061037b6000198460080261035d565b1980831691505092915050565b6000610394838361036a565b9150826002028217905092915050565b6103ad82610154565b67ffffffffffffffff8111156103c6576103c561015f565b5b6103d082546101bd565b6103db828285610317565b600060209050601f83116001811461040e57600084156103fc578287015190505b6104068582610388565b86555061046e565b601f19841661041c866101ee565b60005b828110156104445784890151825560018201915060208501945060208101905061041f565b86831015610461578489015161045d601f89168261036a565b8355505b6001600288020188555050505b505050505050565b600080fd5b61048481610272565b811461048f57600080fd5b50565b6000815190506104a18161047b565b92915050565b6000602082840312156104bd576104bc610476565b5b60006104cb84828501610492565b91505092915050565b7f4e487b7100000000000000000000000000000000000000000000000000000000600052601160045260246000fd5b60008160011c9050919050565b6000808291508390505b600185111561055a57808604811115610536576105356104d4565b5b60018516156105455780820291505b808102905061055385610503565b945061051a565b94509492505050565b600082610573576001905061062f565b81610581576000905061062f565b816001811461059757600281146105a1576105d0565b600191505061062f565b60ff8411156105b3576105b26104d4565b5b8360020a9150848211156105ca576105c96104d4565b5b5061062f565b5060208310610133831016604e8410600b84101617156106055782820a905083811115610600576105ff6104d4565b5b61062f565b6106128484846001610510565b92509050818404811115610629576106286104d4565b5b81810290505b9392505050565b600061064182610272565b915061064c83610272565b92506106797fffffffffffffffffffffffffffffffffffffffffffffffffffffffffffffffff8484610563565b905092915050565b600061068c82610272565b915061069783610272565b92508282026106a581610272565b915082820484148315176106bc576106bb6104d4565b5b5092915050565b6114e0806106d26000396000f3fe608060405234801561001057600080fd5b50600436106101005760003560e01c806370a0823111610097578063cca3e83211610066578063cca3e832146102b1578063d28d8852146102e1578063dd336c12146102ff578063dd62ed3e1461032f57610100565b806370a082311461021557806395d89b4114610245578063a9059cbb14610263578063b09f12661461029357610100565b8063313ce567116100d3578063313ce567146101a15780633eaaf86b146101bf57806340c10f19146101dd57806342966c68146101f957610100565b806306fdde0314610105578063095ea7b31461012357806318160ddd1461015357806323b872dd14610171575b600080fd5b61010d61035f565b60405161011a9190610f84565b60405180910390f35b61013d6004803603810190610138919061103f565b6103f1565b60405161014a919061109a565b60405180910390f35b61015b6104e3565b60405161016891906110c4565b60405180910390f35b61018b600480360381019061018691906110df565b6104ed565b604051610198919061109a565b60405180910390f35b6101a96107df565b6040516101b6919061114e565b60405180910390f35b6101c76107f2565b6040516101d491906110c4565b60405180910390f35b6101f760048036038101906101f2919061103f565b6107f8565b005b610213600480360381019061020e9190611169565b610940565b005b61022f600480360381019061022a9190611196565b610a9a565b60405161023c91906110c4565b60405180910390f35b61024d610ae3565b60405161025a9190610f84565b60405180910390f35b61027d6004803603810190610278919061103f565b610b75565b60405161028a919061109a565b60405180910390f35b61029b610d14565b6040516102a89190610f84565b60405180910390f35b6102cb60048036038101906102c69190611196565b610da2565b6040516102d891906110c4565b60405180910390f35b6102e9610dba565b6040516102f69190610f84565b60405180910390f35b610319600480360381019061031491906111c3565b610e48565b60405161032691906110c4565b60405180910390f35b610349600480360381019061034491906111c3565b610ecf565b60405161035691906110c4565b60405180910390f35b60606000805461036e90611232565b80601f016020809104026020016040519081016040528092919081815260200182805461039a90611232565b80156103e75780601f106103bc576101008083540402835291602001916103e7565b820191906000526020600020905b8154815290600101906020018083116103ca57829003601f168201915b5050505050905090565b600081600560003373ffffffffffffffffffffffffffffffffffffffff1673ffffffffffffffffffffffffffffffffffffffff16815260200190815260200160002060008573ffffffffffffffffffffffffffffffffffffffff1673ffffffffffffffffffffffffffffffffffffffff168152602001908152602001600020819055508273ffffffffffffffffffffffffffffffffffffffff163373ffffffffffffffffffffffffffffffffffffffff167f8c5be1e5ebec7d5bd14f71427d1e84f3dd0314c0f7b2291e5b200ac8c7c3b925846040516104d191906110c4565b60405180910390a36001905092915050565b6000600354905090565b600081600460008673ffffffffffffffffffffffffffffffffffffffff1673ffffffffffffffffffffffffffffffffffffffff168152602001908152602001600020541015610571576040517f08c379a0000000000000000000000000000000000000000000000000000000008152600401610568906112af565b60405180910390fd5b81600560008673ffffffffffffffffffffffffffffffffffffffff1673ffffffffffffffffffffffffffffffffffffffff16815260200190815260200160002060003373ffffffffffffffffffffffffffffffffffffffff1673ffffffffffffffffffffffffffffffffffffffff168152602001908152602001600020541015610630576040517f08c379a00000000000000000000000000000000000000000000000000000000081526004016106279061131b565b60405180910390fd5b8273ffffffffffffffffffffffffffffffffffffffff168473ffffffffffffffffffffffffffffffffffffffff167fddf252ad1be2c89b69c2b068fc378daa952ba7f163c4a11628f55a4df523b3ef8460405161068d91906110c4565b60405180910390a381600460008673ffffffffffffffffffffffffffffffffffffffff1673ffffffffffffffffffffffffffffffffffffffff16815260200190815260200160002060008282546106e4919061136a565b9250508190555081600460008573ffffffffffffffffffffffffffffffffffffffff1673ffffffffffffffffffffffffffffffffffffffff168152602001908152602001600020600082825461073a919061139e565b9250508190555081600560008673ffffffffffffffffffffffffffffffffffffffff1673ffffffffffffffffffffffffffffffffffffffff16815260200190815260200160002060003373ffffffffffffffffffffffffffffffffffffffff1673ffffffffffffffffffffffffffffffffffffffff16815260200190815260200160002060008282546107cd919061136a565b92505081905550600190509392505050565b600260009054906101000a900460ff1681565b60035481565b600073ffffffffffffffffffffffffffffffffffffffff168273ffffffffffffffffffffffffffffffffffffffff1603610867576040517f08c379a000000000000000000000000000000000000000000000000000000000815260040161085e9061141e565b60405180910390fd5b8060036000828254610879919061139e565b9250508190555080600460008473ffffffffffffffffffffffffffffffffffffffff1673ffffffffffffffffffffffffffffffffffffffff16815260200190815260200160002060008282546108cf919061139e565b925050819055508173ffffffffffffffffffffffffffffffffffffffff16600073ffffffffffffffffffffffffffffffffffffffff167fddf252ad1be2c89b69c2b068fc378daa952ba7f163c4a11628f55a4df523b3ef8360405161093491906110c4565b60405180910390a35050565b80600460003373ffffffffffffffffffffffffffffffffffffffff1673ffffffffffffffffffffffffffffffffffffffff1681526020019081526020016000205410156109c2576040517f08c379a00000000000000000000000000000000000000000000000000000000081526004016109b9906112af565b60405180910390fd5b80600460003373ffffffffffffffffffffffffffffffffffffffff1673ffffffffffffffffffffffffffffffffffffffff1681526020019081526020016000206000828254610a11919061136a565b925050819055508060036000828254610a2a919061136a565b92505081905550600073ffffffffffffffffffffffffffffffffffffffff163373ffffffffffffffffffffffffffffffffffffffff167fddf252ad1be2c89b69c2b068fc378daa952ba7f163c4a11628f55a4df523b3ef83604051610a8f91906110c4565b60405180910390a350565b6000600460008373ffffffffffffffffffffffffffffffffffffffff1673ffffffffffffffffffffffffffffffffffffffff168152602001908152602001600020549050919050565b606060018054610af290611232565b80601f0160208091040260200160405190810160405280929190818152602001828054610b1e90611232565b8015610b6b5780601f10610b4057610100808354040283529160200191610b6b565b820191906000526020600020905b815481529060010190602001808311610b4e57829003601f168201915b5050505050905090565b600081600460003373ffffffffffffffffffffffffffffffffffffffff1673ffffffffffffffffffffffffffffffffffffffff168152602001908152602001600020541015610bf9576040517f08c379a0000000000000000000000000000000000000000000000000000000008152600401610bf09061148a565b60405180910390fd5b8273ffffffffffffffffffffffffffffffffffffffff163373ffffffffffffffffffffffffffffffffffffffff167fddf252ad1be2c89b69c2b068fc378daa952ba7f163c4a11628f55a4df523b3ef84604051610c5691906110c4565b60405180910390a381600460003373ffffffffffffffffffffffffffffffffffffffff1673ffffffffffffffffffffffffffffffffffffffff1681526020019081526020016000206000828254610cad919061136a565b9250508190555081600460008573ffffffffffffffffffffffffffffffffffffffff1673ffffffffffffffffffffffffffffffffffffffff1681526020019081526020016000206000828254610d03919061139e565b925050819055506001905092915050565b60018054610d2190611232565b80601f0160208091040260200160405190810160405280929190818152602001828054610d4d90611232565b8015610d9a5780601f10610d6f57610100808354040283529160200191610d9a565b820191906000526020600020905b815481529060010190602001808311610d7d57829003601f168201915b505050505081565b60046020528060005260406000206000915090505481565b60008054610dc790611232565b80601f0160208091040260200160405190810160405280929190818152602001828054610df390611232565b8015610e405780601f10610e1557610100808354040283529160200191610e40565b820191906000526020600020905b815481529060010190602001808311610e2357829003601f168201915b505050505081565b6000600560008473ffffffffffffffffffffffffffffffffffffffff1673ffffffffffffffffffffffffffffffffffffffff16815260200190815260200160002060008373ffffffffffffffffffffffffffffffffffffffff1673ffffffffffffffffffffffffffffffffffffffff16815260200190815260200160002054905092915050565b6005602052816000526040600020602052806000526040600020600091509150505481565b600081519050919050565b600082825260208201905092915050565b60005b83811015610f2e578082015181840152602081019050610f13565b60008484015250505050565b6000601f19601f8301169050919050565b6000610f5682610ef4565b610f608185610eff565b9350610f70818560208601610f10565b610f7981610f3a565b840191505092915050565b60006020820190508181036000830152610f9e8184610f4b565b905092915050565b600080fd5b600073ffffffffffffffffffffffffffffffffffffffff82169050919050565b6000610fd682610fab565b9050919050565b610fe681610fcb565b8114610ff157600080fd5b50565b60008135905061100381610fdd565b92915050565b6000819050919050565b61101c81611009565b811461102757600080fd5b50565b60008135905061103981611013565b92915050565b6000806040838503121561105657611055610fa6565b5b600061106485828601610ff4565b92505060206110758582860161102a565b9150509250929050565b60008115159050919050565b6110948161107f565b82525050565b60006020820190506110af600083018461108b565b92915050565b6110be81611009565b82525050565b60006020820190506110d960008301846110b5565b92915050565b6000806000606084860312156110f8576110f7610fa6565b5b600061110686828701610ff4565b935050602061111786828701610ff4565b92505060406111288682870161102a565b9150509250925092565b600060ff82169050919050565b61114881611132565b82525050565b6000602082019050611163600083018461113f565b92915050565b60006020828403121561117f5761117e610fa6565b5b600061118d8482850161102a565b91505092915050565b6000602082840312156111ac576111ab610fa6565b5b60006111ba84828501610ff4565b91505092915050565b600080604083850312156111da576111d9610fa6565b5b60006111e885828601610ff4565b92505060206111f985828601610ff4565b9150509250929050565b7f4e487b7100000000000000000000000000000000000000000000000000000000600052602260045260246000fd5b6000600282049050600182168061124a57607f821691505b60208210810361125d5761125c611203565b5b50919050565b7f496e73756666696369656e742062616c616e6365000000000000000000000000600082015250565b6000611299601483610eff565b91506112a482611263565b602082019050919050565b600060208201905081810360008301526112c88161128c565b9050919050565b7f4e6f7420616c6c6f776564000000000000000000000000000000000000000000600082015250565b6000611305600b83610eff565b9150611310826112cf565b602082019050919050565b60006020820190508181036000830152611334816112f8565b9050919050565b7f4e487b7100000000000000000000000000000000000000000000000000000000600052601160045260246000fd5b600061137582611009565b915061138083611009565b92508282039050818111156113985761139761133b565b5b92915050565b60006113a982611009565b91506113b483611009565b92508282019050808211156113cc576113cb61133b565b5b92915050565b7f496e76616c696420616464726573730000000000000000000000000000000000600082015250565b6000611408600f83610eff565b9150611413826113d2565b602082019050919050565b60006020820190508181036000830152611437816113fb565b9050919050565b7f4e6f7420656e6f7567682062616c616e63650000000000000000000000000000600082015250565b6000611474601283610eff565b915061147f8261143e565b602082019050919050565b600060208201905081810360008301526114a381611467565b905091905056fea2646970667358221220bb797f8cfd2cbe8d5e1d412f81f4ef91e013d3a4e08ac4a8e4b2af5f064a1b5464736f6c634300081c0033",
  "linkReferences": {},
  "deployedLinkReferences": {}
}